{
  "contractName": "SchruteBuck",
  "abi": [
    {
      "constant": true,
      "inputs": [],
      "name": "totalSupply",
      "outputs": [
        {
          "name": "",
          "type": "uint256"
        }
      ],
      "payable": false,
      "stateMutability": "view",
      "type": "function",
      "signature": "0x18160ddd"
    },
    {
      "inputs": [],
      "payable": false,
      "stateMutability": "nonpayable",
      "type": "constructor",
      "signature": "constructor"
    }
  ],
  "bytecode": "0x6080604052348015600f57600080fd5b50621e84806000556099806100256000396000f3fe608060405260043610603e5763ffffffff7c010000000000000000000000000000000000000000000000000000000060003504166318160ddd81146043575b600080fd5b348015604e57600080fd5b5060556067565b60408051918252519081900360200190f35b6000548156fea165627a7a72305820176070555e2b9da2fc18ae45adcede5650098d63da2421dd605560d7bc91e74e0029",
  "source": "pragma solidity ^0.5.0;\n\ncontract SchruteBuck {\n    uint256 public totalSupply;\n\n    constructor() public {\n        totalSupply = 2000000;\n    }\n\n    // Read total number of tokens\n}\n",
  "sourcePath": "/Users/z3r0c00l_2k/Documents/Projects/Freelance/eth-todo/SchruteBuck/contracts/SchruteBuck.sol",
  "compiler": {
    "name": "solc",
    "version": "0.5.0+commit.1d4f565a.Emscripten.clang"
  },
  "schemaVersion": "3.0.1",
  "updatedAt": "2021-06-23T09:11:19.551Z",
  "devdoc": {
    "methods": {}
  },
  "userdoc": {
    "methods": {}
  }
}